:100000000020001049010000C9010000CF010000DC
:100010000000000000000000000000001FDBFFEFF8
:10002000000000000000000000000000D5010000FA
:100030000000000000000000DB010000710E000065
:10004000E7010000E7010000E7010000E701000010
:10005000E7010000E7010000E7010000E701000000
:10006000E7010000E7010000E7010000E7010000F0
:10007000E7010000E7010000E7010000C1610000A6
:10008000E7010000E70100008512000009130000ED
:10009000E701000099660000000000000000000079
:1000A000E701000031170000E70100000000000038
:1000B000E7010000E7010000E7010000E7010000A0
:1000C000D0B7000000000010BC010000BC0100100F
:1000D000C00A000080B588B000AFF860B9607A60EF
:1000E000BB68FB61FB68BB6100237B610AE0FB69C5
:1000F0001A1DFA61BA69111DB96112681A607B692B
:1001000004337B617A697B689A42F0D3C046BD466E
:1001100008B080BD80B584B000AF786039607B687E
:10012000FB600023BB6007E0FB681A1DFA60002239
:100130001A60BB680433BB60BA683B689A42F3D369
:10014000C046BD4604B080BD80B584B000AF1B4B37
:10015000FB6014E0FB681A1DFA601B68BB60FB685B
:100160001A1DFA601B687B60FB681A1DFA601B6829
:100170003B603A687968BB681800FFF7ABFFFA6824
:100180000F4B9A42E6D30FE0FB681A1DFA601B681A
:100190007B60FB681A1DFA601B683B603A687B68ED
:1001A00011001800FFF7B6FFFA68064B9A42EBD32E
:1001B00008F0E4F90AF028F9FEE7C046C0000000A4
:1001C000CC000000D400000080B500AFFEE780B591
:1001D00000AFFEE780B500AFFEE780B500AFFEE7F9
:1001E00080B500AFFEE780B500AFFEE7FFFFFFFF81
:1001F000FFFFFFFFFFFFFFFFFFFFFFFFFFFFFFFF0F
:10020000FFFFFFFFFFFFFFFFFFFFFFFFFFFFFFFFFE
:10021000FFFFFFFFFFFFFFFFFFFFFFFFFFFFFFFFEE
:10022000FFFFFFFFFFFFFFFFFFFFFFFFFFFFFFFFDE
:10023000FFFFFFFFFFFFFFFFFFFFFFFFFFFFFFFFCE
:10024000FFFFFFFFFFFFFFFFFFFFFFFFFFFFFFFFBE
:10025000FFFFFFFFFFFFFFFFFFFFFFFFFFFFFFFFAE
:10026000FFFFFFFFFFFFFFFFFFFFFFFFFFFFFFFF9E
:10027000FFFFFFFFFFFFFFFFFFFFFFFFFFFFFFFF8E
:10028000FFFFFFFFFFFFFFFFFFFFFFFFFFFFFFFF7E
:10029000FFFFFFFFFFFFFFFFFFFFFFFFFFFFFFFF6E
:1002A000FFFFFFFFFFFFFFFFFFFFFFFFFFFFFFFF5E
:1002B000FFFFFFFFFFFFFFFFFFFFFFFFFFFFFFFF4E
:1002C000FFFFFFFFFFFFFFFFFFFFFFFFFFFFFFFF3E
:1002D000FFFFFFFFFFFFFFFFFFFFFFFFFFFFFFFF2E
:1002E000FFFFFFFFFFFFFFFFFFFFFFFFFFFFFFFF1E
:1002F000FFFFFFFFFFFFFFFFFFFFFFFFFFFFFFFF0E
:1003000080B586B000AF786039607B683B610F23B1
:10031000FB1800221A7034E03B695A1C3A611978C4
:100320000F23FB180F22BA1812784A401A700023C4
:100330007B6120E00F23FB181B785BB2002B10DAE7
:100340000F23FA180F23FB181B78DB1813700F23E9
:10035000FB180F22BA1812787B2149424A401A70C2
:1003600006E00F23FA180F23FB181B78DB18137015
:100370007B6901337B617B69072BDBDD3B68013BDC
:100380003B603B68002BC7D10F23FB181B7818007C
:10039000BD4606B080BD80B584B000AF78600A006D
:1003A000FB1C1A700023FB6021E0FB1C1B78F02271
:1003B00013409F2B08DCFB1C1B781B09DBB230337E
:1003C000DAB27B681A7007E0FB1C1B781B09DBB2F2
:1003D0003733DAB27B681A70FB1CFA1C12781201F0
:1003E0001A707B6801337B60FB680133FB60FB683C
:1003F000012BDADD7B681800BD4604B080BD80B5F6
:1004000084B000AF786039600023FB603BE07B681C
:100410001B782F2B0AD97B681B78392B06D87B6871
:100420001A780B23FB18303A1A7017E07B681B7898
:10043000402B11D97B681B78462B0DD87B681A7826
:100440000B23FB18413A1A700B23FB180B22BA1826
:1004500012780A321A7001E0002318E07B68013339
:100460007B603B681B781B01DAB23B681A703B6803
:100470001A780B23FB181B781343DAB23B681A7007
:10048000FB680133FB60FB68012BC0DD7B68180053
:10049000BD4604B080BDFFFF80B500AF054B1B68B3
:1004A000180001F0A1F8044B01221A70C046BD46A5
:1004B00080BDC046AC030010BD01001080B500AF88
:1004C0000B4B00221A600A4B0022DA60084B002214
:1004D0009A60084B00221A70074B1900142001F093
:1004E0005FF80200054B1A60C046BD4680BDC0469D
:1004F000B0030010BD01001099040000AC0300100F
:1005000080B582B000AF78607B6800221A707B688B
:1005100000225A707B6800229A707B680022DA7091
:100520007B6800225A607B6800229A607B68002208
:10053000DA60C046BD4602B080BDFFFF80B586B020
:1005400000AF78603960454B0A221A60434B0522A0
:100550005A60424B7A689A60404B3A68DA60404B86
:1005600002221A703D4B9B681A783D4B5A703B4BE8
:100570009B685A783A4B9A70384B9B689A78384BFC
:10058000DA70364B9B68DB780B22BA18DB181370D5
:100590000B23FB181A78334B11001800FFF7FBFEF2
:1005A0002E4B9B689B683B612F4BFB601723FB180E
:1005B00000221A7012E03B691A78FB6811001800DB
:1005C000FFF7E9FE0300FB603B6901333B61172342
:1005D000FB181A781723FB1801321A701F4B9B68FF
:1005E000DB781722BA1812789A42E4D30B23FB184F
:1005F0001B7806331A001A4B11001800FFF780FE13
:1006000003001A00FB6811001800FFF7C4FE030086
:10061000FB60FB6803221A70104B9B680B22BA1810
:1006200012780932D2B2DA700C4B9B680A225A60F7
:100630000A4B9B68DB781A00094B1100180006F082
:10064000CBF80A4B00221A70094B1B68180000F007
:10065000B9FFC046BD4606B080BDC046B00300101D
:10066000C0030010C4030010C6030010BD01001039
:10067000AC030010B0B584B002AF384B9B681B7858
:100680005A2B09D1364B1B68180000F0ADFF334BD5
:100690009B681E225A603CE0FB1D0121180006F0F9
:1006A00029F9031E27D0FB1D1B78062B09D12C4BE3
:1006B0001B68180000F098FF284B9B681E225A60A8
:1006C00019E0FB1D1B78152B15D1254B1B68180055
:1006D00000F08AFF214B9B68DB781A00214B110048
:1006E000180006F079F8204B00221A701C4B1B688A
:1006F000180000F067FF1C4B1B78002B09D0184B2B
:100700001B68180000F070FF144B9B680A225242CD
:100710005A60124B9B685B681E2B18D10F4B9B686D
:10072000DB68002B13D00D4B9C680C4B9B68DD687D
:100730000A4B9B681878094B9B685978074B9B6854
:100740009A78002300930023A84703006360034BBB
:100750009B685B681800BD4602B0B0BDB0030010D6
:10076000AC030010C0030010BD010010F0B587B04D
:1007700002AFBB1C0121180006F0BCF8031E00D11B
:10078000D1E0BB1C1B78022B06D16F4B00221A70E4
:100790006E4BDB6814225A606B4B1B785BB2002BEC
:1007A00000DAC9E0684B1B781A00BB1C1978684B4B
:1007B0009954654B1B780133DAB2634B1A70BB1C3A
:1007C0001B78032B00D0B7E0604BDB68604A52789F
:1007D0001A705E4BDB685E4A92785A705B4BDB683E
:1007E0005B4AD2789A703A005A4B11001800FFF712
:1007F00006FE03007B607B68002B08D03B001B7863
:100800005B08DAB2514BDB68DB789A4208D94F4B70
:10081000DB68012252425A604C4BDB685B688EE019
:10082000494B1B78033B1A00FC1C494B1100180074
:10083000FFF766FD03002370434B1B78DA1E444B21
:10084000D3187A1C11001800FFF7D9FD7B1C1B7808
:10085000FA1C12789A4208D03C4BDB6802225242C2
:100860005A603A4BDB685B6869E03B001B78002B01
:1008700024D0394BBB600F23FB1800221A7014E000
:10088000324BDB689A680F23FB181B78D218BB68C1
:1008900011001800FFF7B3FD0300BB600F23FB1826
:1008A0001A780F23FB1801321A703B001B785B0883
:1008B000DBB20F22BA1812789A42E1D3BB1C06228F
:1008C0001A70BB1C0121180005F086FFBB1C01211A
:1008D000180005F081FF1C4B00221A701B4BDB68CF
:1008E000DB68002B1AD0194BDC68184BDB68DD681D
:1008F000164BDB681878154BDB685978134BDB68AF
:100900009A78124BDB689E683B001B785B08DBB271
:1009100000933300A847030063600DE00B4BDB68D6
:100920001E225A6008E00D4B1B78002B04D0074BA9
:10093000DB680A2252425A60044BDB685B6818008D
:10094000BD4605B0F0BDC046BC010010B0030010AC
:1009500044040010480400104A040010BD010010B7
:1009600080B582B000AF324B1B680A2B1FD1FFF756
:1009700081FE02002E4B1A602D4B1B681E2B51D19D
:100980002B4B9B681B785A2B4CD0294BDB681422CD
:100990005A60274BDB685A68254B1A60254B0022AA
:1009A0001A70254B1B68180000F00CFE3AE0204B33
:1009B0001B68142B36D1FFF7D9FE02001C4B1A60BE
:1009C0001B4B1B68002B2DDA194B1B680A3329D0EF
:1009D000174B5B68002B25DD154B5B685A1E144BCB
:1009E0005A60134BDB6814225A60114B14221A60B0
:1009F000FB1D15221A70FB1D0121180005F0ECFEED
:100A0000FB1D0121180005F0E7FE0B4B1B681800C9
:100A100000F0EAFD074B00221A70074B1B68180014
:100A200000F0D0FD024B1B681800BD4602B080BD2F
:100A3000B0030010BD010010AC03001080B582B0FF
:100A400000AF1A4B37229B5C1B02184A3621525CBE
:100A50009A1813001B019B1A9B007B60134B3922D1
:100A60009B5C1B02114A3821525C9A1813001B012F
:100A70009B1A9B003B600E4B00221A700D4B00220C
:100A80001A700D4B1A687B689A4202D3084B0122F8
:100A90001A70094B1A683B689A4202D3054B01222F
:100AA0001A70C046BD4602B080BDC0465801001055
:100AB0000000001001000010C001001080B500AF60
:100AC0000A4B1B685A1C094B1A60084B1B68084AE2
:100AD000934208D9054B00221A60064B00221A7077
:100AE000054B00221A70C046BD4680BDC0010010F3
:100AF00080510100000000100100001080B582B09C
:100B000000AF7860074B1B68074A934200D1F9E7B2
:100B1000C046044B7A681A60FFF790FFC046BD4696
:100B200002B080BDC00100107F51010080B582B0CD
:100B300000AF154B35229B5C7B607B681B027B60A2
:100B4000114B34229B5C1A007B6813437B607B68EB
:100B50001B027B600C4B33229B5C1A007B681343A7
:100B60007B607B681B027B60074B32229B5C1A0018
:100B70007B6813437B607B681800FFF7BFFFC046AC
:100B8000BD4602B080BDC0465801001080B582B09D
:100B900000AF124B1B687B607B68D9B2104B3222CE
:100BA00099547B681B0A7B607B68D9B20C4B33225B
:100BB00099547B681B0A7B607B68D9B2084B34224E
:100BC00099547B681B0A7B607B68D9B2044B352241
:100BD0009954C046BD4602B080BDC046C001001059
:100BE0005801001080B500AF094B00221A60094B74
:100BF0001900002000F0C2FC0200074B1A60064BEF
:100C00001B68180000F0DEFCC046BD4680BDC04633
:100C1000C0010010BD0A0000C404001080B584B0FB
:100C200000AF454B31229B5C002B02D101235B427C
:100C30007DE0414B37229B5C1B023F4A3621525CD0
:100C40009A1813001B019B1A9B00BB603A4B392278
:100C50009B5C1B02384A3821525C9A1813001B0116
:100C60009B1A9B007B600F23FB18FF221A70BA6847
:100C70007B689A4220D2314B1B78002B0BD1304B32
:100C80001A68BB689A4206D32C4B01221A700F23B4
:100C9000FB1801221A702B4B1B78002B30D1284BEC
:100CA0001A687B689A422BD3264B01221A700F23B5
:100CB000FB1800221A7023E0BA687B689A421FD999
:100CC000204B1B78002B0BD11D4B1A687B689A4276
:100CD00006D31C4B01221A700F23FB1800221A7036
:100CE000164B1B78002B0BD1154B1A68BB689A4228
:100CF00006D3124B01221A700F23FB1801221A701F
:100D00000F23FB181B787F2B0DD80B4B1B781A0079
:100D10000F23FB181B785BB29A4204D00F23FB18F9
:100D20001A78054B1A700F23FB181B785BB218005A
:100D3000BD4604B080BDC046580100100000001040
:100D4000C001001001000010B0B582B000AF020079
:100D50003960FB1D1A70FB1D1B787F2B32D92F4C7D
:100D6000FB1D1B781A000F231340083B99082B4AE0
:100D7000FB1D1B7818000F230340083B9B0806331C
:100D80009B00D31804331B68FA1D1278100003224D
:100D90000240D200FF2090400200D2431A403B683C
:100DA0009B01FF201840FB1D1B781D0003232B40D7
:100DB000DB00984003001A438B1D9B00E3180433AB
:100DC0001A6027E0164CFB1D1B785BB29B08144988
:100DD000FA1D127852B29208C03292005258F91D90
:100DE0000978080003210140C900FF208840010064
:100DF000C94311403A689201FF201040FA1D127851
:100E0000150003222A40D200904002000A43C0335A
:100E10009B001A51C046BD4602B0B0BD00ED00E0D7
:100E200000E100E080B582B000AF78607B680E4AD8
:100E3000934201D9012312E00C4B7A681202120A84
:100E4000013A5A6001235B4203211800FFF77CFF3F
:100E5000064B00229A60054B07221A6000231800F7
:100E6000BD4602B080BDC046FFFFFF0010E000E0BD
:100E700080B582B000AF00237B6046E0324A7B68D9
:100E8000DB00D31801331B78002B3BD02E4A7B6844
:100E9000DB00D31803331B78002B0FD02A4A7B6862
:100EA000DB00D31803331B78013BD9B2264A7B6899
:100EB000DB00D31803330A1C1A7023E0224A7B6834
:100EC000DB00D31804331B68002B06D01E4A7B6856
:100ED000DB00D31804331B6898471B4A7B68DB0090
:100EE000D31801331B78002B0CD0174A7B68DB002A
:100EF000D31802331978144A7B68DB00D318033304
:100F00000A1C1A707B6801337B607B68042BB5DD9B
:100F10000E4B1B68002B04D00C4B1B685A1E0B4B4E
:100F20001A600B4B1B68002B04D0094B1B685A1E20
:100F3000074B1A60074B1B685A1C064B1A60C046C9
:100F4000BD4602B080BDC046C8040010C4010010F8
:100F5000CC010010C801001080B582B000AFFB1DAD
:100F600000221A700CE0FB1D1B78DA000D4BD31821
:100F7000180000F097F8FB1D1A78FB1D01321A705B
:100F8000FB1D1B78042BEED9074B1B68642118004E
:100F900009F093FB03001800FFF744FFC046BD466D
:100FA00002B080BDC8040010780C001080B582B07B
:100FB00000AF7860064B7A681A6000E030BF044BDF
:100FC0001B68002BFAD1C046BD4602B080BDC046AA
:100FD000C401001080B584B000AF02003960FB1D71
:100FE0001A700023FB6033E01D4BFA68D200D35C1B
:100FF00001225340DBB2002B27D0194AFB68DB00EB
:10100000D318013300221A70154AFB68DB00D3188D
:1010100004333A681A60124AFB68DB00D3180233C3
:10102000FA1D12781A700E4AFB68DB00D3180333DE
:10103000FA1D12781A700A4BFA68D2000121D154B5
:10104000FB68DA00064BD31806E0FB680133FB604F
:10105000FB68042BC8DD00231800BD4604B080BD2A
:10106000C804001080B582B000AF78607B68002BA8
:1010700006D07B689A787B68DA707B6801225A70A8
:10108000C046BD4602B080BD80B582B000AF78607A
:101090007B68002B02D07B6800225A70C046BD4698
:1010A00002B080BD80B582B000AF78607B68002B55
:1010B0000ED07B6800225A707B6800221A707B6811
:1010C00000225A607B6800229A707B680022DA70E6
:1010D000C046BD4602B080BD80B582B000AF020000
:1010E000FB1D1A70064BFA1D127811001F220A40D0
:1010F000012191400A001A60C046BD4602B080BD81
:1011000000E100E080B582B000AF0200FB1D1A7064
:10111000084AFB1D1B7819001F230B400121994031
:101120000B001900C0235B00D150C046BD4602B081
:1011300080BDC04600E100E080B582B000AF7860BD
:101140000A00FB1C1A707B681B68FA1C12781100DD
:101150000F220A40012191400A0013405A1E934178
:10116000DBB21800BD4602B080BD80B582B000AFD2
:1011700078600A00FB1C1A70FB1C1B785BB2012212
:101180009A4013001A007B681A60C046BD4602B040
:1011900080BD80B582B000AF78607B685B6801225B
:1011A0001A437B685A60C046BD4602B080BD80B518
:1011B00084B000AFF8607A600B23FB180A1C1A7029
:1011C0000B23FB1800229A56FB68063292007968BE
:1011D000D150C046BD4604B080BD80B582B000AFDE
:1011E00078600A00FB1C1A707B685969FB1C00229E
:1011F0009A5613005B009B1801229A4013000A00C4
:101200001A437B685A61C046BD4602B080BD80B5B6
:1012100082B000AF78600A00FB1C1A707B685969C5
:10122000FB1C00229A5613005B009B18013301221D
:101230009A4013000A001A437B685A61C046BD46B3
:1012400002B080BD80B500AF054B1B68002B04D0F9
:10125000034B1B685A1E024B1A60C046BD4680BD38
:10126000D001001080B500AF054B1B68002B04D0E7
:10127000034B1B685A1E024B1A60C046BD4680BD18
:10128000D401001080B582B000AF1D4B3B601D4BF8
:1012900000211800FFF750FF031E2DD0194B00212D
:1012A0001800FFF762FF00237B6022E03B685B7859
:1012B000002B18D03B689B68002B05D03B689B68CF
:1012C0005A1E3B689A600EE03B68DB68002B02D038
:1012D0003B68DB6898473B685B78002B03D03B6832
:1012E0005A683B689A603B6810333B607B68013307
:1012F0007B607B680D2BD9DDC046BD4602B080BD4A
:10130000F00400100040014080B582B000AF1D4BDA
:101310003B601D4B00211800FFF70EFF031E2DD070
:10132000194B00211800FFF720FF00237B6022E00B
:101330003B685B78002B18D03B689B68002B05D07E
:101340003B689B685A1E3B689A600EE03B68DB680E
:10135000002B02D03B68DB6898473B685B78002B2A
:1013600003D03B685A683B689A603B6810333B6027
:101370007B6801337B607B68062BD9DDC046BD46A8
:1013800002B080BDD00500100080014080B584B05F
:1013900000AF0023FB6009E0FB681A01204BD31863
:1013A000180000F02FF9FB680133FB60FB680D2B80
:1013B000F2DD1C4B1A4800220E2100F08BF80300CE
:1013C000BB60BB68180000F0FDF8174B180008F070
:1013D000D9FD07F061FB03007B60134B180008F098
:1013E000E1FD114B00211800FFF7F7FE7B680E4866
:1013F0001A000021FFF7DBFE0B4B00211800FFF75E
:1014000006FF094B1800FFF7C4FE1220FFF77AFE13
:101410001220FFF761FEC046BD4604B080BDC04645
:10142000F0040010451200000040014080B584B077
:1014300000AF0023FB6009E0FB681A01224BD318C0
:10144000180000F0DFF8FB680133FB60FB68062B37
:10145000F2DD1E4B1C480022072100F03BF8030080
:10146000BB60BB68180000F0ADF8194B180008F01D
:1014700089FD07F011FB03000A21180009F01DF98E
:1014800003007B60124B180008F08CFD104B00210C
:101490001800FFF7A2FE7B680D481A000021FFF735
:1014A00086FE0B4B00211800FFF7B1FE084B180019
:1014B000FFF76FFE1320FFF725FE1320FFF70CFE4A
:1014C000C046BD4604B080BDD005001065120000C6
:1014D0000080014080B586B000AFF860B9607A60E6
:1014E0003B6000237B611DE0FB681B7801225340B9
:1014F000DBB2002B10D0FB6800225A70FB683A6800
:10150000DA60FB687A685A60FB687A689A60FB6800
:1015100001221A70FB680AE0FB681033FB607B69EC
:1015200001337B617A69BB689A42DDDB00231800D6
:10153000BD4606B080BD80B584B000AF786039602C
:101540007B68002B01D1002313E00F23FB187A687E
:1015500052781A707B6800225A707B683A685A6029
:101560007B683A689A607B680F22BA1812785A70C2
:1015700001231800BD4604B080BDFFFF80B582B0D6
:1015800000AF786039603B687A6804480E21FFF745
:10159000A1FF03001800BD4602B080BDF00400109A
:1015A00080B582B000AF786039603B687A680448E3
:1015B0000721FFF78FFF03001800BD4602B080BD72
:1015C000D005001080B582B000AF78607B68002B3A
:1015D00006D07B685A687B689A607B6801225A70E3
:1015E000C046BD4602B080BD80B582B000AF786015
:1015F0007B68002B02D07B6800225A70C046BD4633
:1016000002B080BD80B582B000AF78607B68002BEF
:101610000ED07B6800225A707B6800221A707B68AB
:101620000022DA607B6800225A607B6800229A60A0
:10163000C046BD4602B080BD80B582B000AF02009A
:10164000FB1D1A70064BFA1D127811001F220A406A
:10165000012191400A001A60C046BD4602B080BD1B
:1016600000E100E080B500AF024B1B6B1800BD46E7
:1016700080BDC0460080044080B582B000AF786075
:10168000034B7A681A63C046BD4602B080BDC046AF
:101690000080044080B582B000AF786039607B681C
:1016A0003A685A60C046BD4602B080BD80B582B07F
:1016B00000AF78607B68AA229A607B6855229A60A6
:1016C000C046BD4602B080BD80B582B000AF786034
:1016D00039607B681A683B681A437B681A60C046A9
:1016E000BD4602B080BD80B582B000AF78607B6837
:1016F00001211800FFF7E8FF7B681800FFF7D6FF0D
:10170000C046BD4602B080BD80B582B000AF7860F3
:101710007B681B681800BD4602B080BD80B582B0F2
:1017200000AF78607B68DB681800BD4602B080BD02
:1017300080B582B000AF104B1800FFF7E5FF030043
:101740007B607B680422134011D004E00A4B042123
:10175000180008F034FE084B1800FFF7D5FF020010
:1017600004231340F2D1044B1800FFF7BCFFC0461E
:10177000BD4602B080BDC0460040004080B584B088
:1017800000AF78601920FFF757FF0F4B180008F0E3
:1017900005FE0421002007F0EFF80C4BFB60FB680E
:1017A0007A685343084A19001000FFF773FF064B8D
:1017B00003211800FFF788FF034B1800FFF776FF9F
:1017C000C046BD4604B080BD00400040B0710B0073
:1017D00080B500AF064B1800FFF7A0FF0200054BD5
:1017E0001A60034B1800FFF761FFC046BD4680BD7D
:1017F00000400040D801001080B500AFFFF732FF75
:101800000300DAB2134B1A70124B1B781A00042330
:10181000134014D00420FFF72FFF06F01FF8030039
:101820001A000D4B1A800C4B1B8801339AB20A4BDD
:101830001A80094B1B88180006F03AF807E0064B9F
:1018400000221A80044B1B88180006F031F8C046AD
:10185000BD4680BDDE010010DC01001090B585B0F2
:1018600000AF124B180003F0B9FF0300180009F095
:101870009AFA03000C00BB60FC60B868F9680200CB
:101880000B0009F0AFF903000C0018002100002242
:10189000074B09F00DF803000C003B607C603B68CF
:1018A0007C6818002100BD4605B090BD8333000060
:1018B0000000694090B585B000AFFFF7CFFF03008F
:1018C0000C003B607C600022204B3868796809F08E
:1018D000EBFA031E07D100221D4B3868796809F026
:1018E00011FB031E02D000231A4C2AE000221A4BDF
:1018F0003868796809F082F803000C0018002100AC
:10190000164B5C681B681A00230008F011FF0300E7
:101910000C00180021000022114B08F0C9FF030041
:101920000C00BB60FC6000220023B868F96809F075
:101930005FFA031E03D000230024BB60FC60BB6879
:10194000FC6818002100BD4605B090BD00000840AD
:1019500000003E400000F0BF0000104008000010F2
:101960000000304090B589B000AF38607960214BFD
:101970005B7C1B021F4A127C1343180009F013FA08
:1019800000221D4B08F094FF03000C00BB61FC61BA
:10199000184BDB7B1B02174A927B1343180009F09C
:1019A00002FA0022144B08F083FF03000C003B6195
:1019B0007C61BA69FB693868796808F0B9FE030090
:1019C0000C00180021003A697B6908F071FF0300E0
:1019D0000C00180021000022084B08F0A9FE0300AB
:1019E0000C00BB60FC60BB68FC6818002100BD46B1
:1019F00009B090BD580100100088C3400000594054
:101A000080B500AF054B01221A70054B1B6818000A
:101A1000FFF7EAFDC046BD4680BDC046DF010010AD
:101A20005806001080B500AF054B01221A70054B17
:101A30001B681800FFF7D8FDC046BD4680BDC046F4
:101A4000E00100105406001080B500AF154BDB78A4
:101A5000002B05D0134BDB78013BDAB2114BDA7067
:101A6000104B9B79002B05D00E4B9B79013BDAB2D2
:101A70000C4B9A710B4B5B7A002B05D0094B5B7AB0
:101A8000013BDAB2074B5A72064B1B7B002B05D089
:101A9000044B1B7B013BDAB2024B1A73C046BD46B6
:101AA00080BDC0464406001090B583B000AFFB1D5A
:101AB00000221A70204B1B78002B36D000F0B4FAAD
:101AC00000221E4B08F034FE03000C001A00230015
:101AD0003C1D1000190009F01DF903002380184B6C
:101AE0009B799AB23B1D1B88D3189AB23B1D0A3AC8
:101AF0001A803B1D1B88DAB2114B5A703B1D1B88A4
:101B00001B0A9BB2DAB20E4B9A700B4B00221A7072
:101B1000FB1D01221A700B4B1B68094A527A5A604E
:101B2000084B1B681800FFF74DFDFB1D1B781800C4
:101B3000BD4603B090BDC046DF0100100000244048
:101B4000580100105806001090B585B000AF3F4B0B
:101B50009A7D3F4B5A713D4BDA7C3D4BDA713B4BE2
:101B6000DA7C3B4B9A71394B9A7D394B9A70374BE3
:101B7000DA7C374B1A71354BDA7C354BDA70334BE4
:101B80001A7E324BDB7DD31ADAB2314B1A722F4BED
:101B90001A7D2F4B9A722D4B1A7D2D4B5A722B4B5F
:101BA0001A7E2B4BDA72294B5A7D294B5A73274BDD
:101BB0005A7D274B1A73FFF77DFE03000C00BB60B4
:101BC000FC60BB68FC6818002100FFF7CBFE020038
:101BD0000B00FC1D1000190009F09CF80300237095
:101BE0001B4BDB7AFA1D12789A4203D3184B012261
:101BF0001A7022E0164B1B7AFA1D12789A4203D310
:101C0000134B02221A7018E0114B1B7AFA1D12783E
:101C10009A4209D20E4B5B79FA1D12789A4203D38D
:101C20000B4B03221A7008E0094B9B78FA1D1278BF
:101C30009A4202D2064B04221A70054BFA1D127802
:101C40005A70C046BD4605B090BDC0465801001050
:101C50004406001090B585B000AF814B5A79814B96
:101C60009B7D9A4205D17E4BDA797E4BDB7C9A4292
:101C700017D07C4B9A7D7A4B5A717A4BDA7C784B31
:101C8000DA71784BDA7C764B9A71764B9A7D744B8D
:101C90009A70744BDA7C724B1A71724BDA7C704B0F
:101CA000DA706F4B1B7A1A006E4B1B7E19006D4B5E
:101CB000DB7DCB1A9A4205D1694B9A7A694B1B7D21
:101CC0009A420FD0674B1A7E664BDB7DD31ADAB28D
:101CD000634B1A72634B1A7D614B9A72614B1A7D8A
:101CE0005F4B5A725E4BDA7A5E4B1B7E9A4205D18D
:101CF0005B4B5A7B5B4B5B7D9A420BD0594B1A7EF8
:101D0000574BDA72574B5A7D554B5A73554B5A7D88
:101D1000534B1A73FFF7CEFD03000C003B607C6051
:101D20003B687C6818002100FFF71CFE02000B00D6
:101D30000F217C181000190008F0ECFF030023703D
:101D40000F23FB181B78632B03D90F23FB18632287
:101D50001A70444B0F22BA1812781A71404BDB7A72
:101D60000F22BA1812789A4213D33D4B5A783C4B43
:101D7000DB7A9A4208D33A4B1B7B002B00D063E0FE
:101D8000374B01221A705FE0354B5A7B344B1A7384
:101D90005AE0334B1B7A0F22BA1812789A4212D3A8
:101DA0002F4B5A782E4B1B7A9A4207D32C4B5B7AD7
:101DB000002B49D12A4B02221A7045E0284B9A7A0F
:101DC000274B5A7240E0264B1B7A0F22BA18127822
:101DD0009A4220D2224B5B790F22BA1812789A428B
:101DE00019D31F4B5A781E4B1B7A9A420DD21C4BAB
:101DF0005A781B4B5B799A4207D3194B9B79002B7E
:101E000008D1174B03221A7004E0154BDA79144BF2
:101E10009A7119E018E0124B9B780F22BA181278C9
:101E20009A4211D20E4B5A780D4B9B789A4207D2A8
:101E30000B4BDB78002B07D1094B04221A7003E00F
:101E4000074B1A79064BDA70054B0F22BA18127835
:101E50005A70034B1B781800BD4605B090BDC046B4
:101E6000440600105801001080B582B000AFFB1D81
:101E700000221A703E4B1B78002B00D172E03D4BC4
:101E80005B7B002B58D13C4B1B7801225340DBB2CB
:101E9000002B11D0394B1B7801225340DBB2002BB1
:101EA0000AD0374B1B7801225340DBB2002B03D002
:101EB000304B0422DA703BE02F4B1B78002B11D003
:101EC0002E4B1B7801225340DBB2002B0AD02C4B47
:101ED0001B7801225340DBB2002B03D0254B032299
:101EE000DA7025E0244B1B78002B0ED0234B1B7897
:101EF000002B0AD0224B1B7801225340DBB2002B6F
:101F000003D01C4B0222DA7012E01B4B1B78002B13
:101F10000BD01A4B1B78002B07D0194B1B78002BCA
:101F200003D0144B0122DA7002E0124B0022DA7067
:101F3000104B00221A7105E0FFF78CFE03001A0017
:101F40000C4BDA700A4B00221A70FB1D01221A702A
:101F50000C4B1B68074A927C5A600A4B1B6818009E
:101F6000FFF730FBFB1D1B781800BD4602B080BD9B
:101F7000E001001058010010240B0010340B001079
:101F8000280B00105406001080B500AF114B5B7A8F
:101F90001A00114B19001000FFF7F0FA02000F4B66
:101FA0001A600C4B9B7C1A000D4B19001000FFF7B8
:101FB000E5FA02000B4B1A600B4B19000120FFF7EA
:101FC000DDFA0200094B1A60FFF7BEFDC046BD46B0
:101FD00080BDC04658010010011A000058060010CC
:101FE000251A000054060010491A0000400600108F
:101FF00080B500AF04F048F8084B1B681800FFF7E5
:10200000E1FA074B01221A70064B01221A70FFF702
:102010004BFDFFF729FFC046BD4680BD40060010BE
:10202000DF010010E001001090B587B000AF1A4B3F
:10203000180003F0D3FB0300180008F0B4FE0300FF
:102040000C003B617C613869796902000B0008F083
:10205000C9FD03000C001800210000220F4B08F0FE
:1020600027FC03000C001800210000F067F80300B3
:102070000C00BB60FC60BB68FC681800210000F02D
:102080000FF803000C003B607C603B687C68180024
:102090002100BD4607B090BD8343000000408F4043
:1020A00090B585B000AF386079601E4B5C681B68E6
:1020B0001A0023003868796808F0FAFB03000C0066
:1020C0001800210008F0A4F9174B5C681B681A007F
:1020D000230008F0EDFB03000C0018002100134B57
:1020E0005C681B681A00230008F07CFD03000C00EC
:1020F0001A00230000200E4908F0DAFB03000C0050
:10210000180021000B4A0C4B08F078FC03000C006F
:10211000BB60FC60BB68FC6818002100BD4605B0D0
:1021200090BDC046180000101000001020000010E4
:102130000000F03F666666666612714090B585B035
:1021400000AF386079603A687B680F480F4908F043
:1021500055FC03000C001A0023003868796808F069
:10216000A7FB03000C00180021000022084B08F018
:10217000DFFA03000C00BB60FC60BB68FC68180061
:102180002100BD4605B090BDFCA9F1D24D621040C2
:102190000088C34080B584B000AFF8607A600B233C
:1021A000FB180A1C1A700B23FB181A78FB689200A4
:1021B0007968D150C046BD4604B080BD90B583B0AB
:1021C00000AF78600C0010001900FB1C221C1A7074
:1021D000BB1C021C1A707B1C0A1C1A70FB1C1B788F
:1021E0001B047A68D318BA1C1278012191400A00A6
:1021F000791C0878B91C0978884001009200D150F8
:10220000C046BD4603B090BD80B582B000AF7860D7
:1022100008001100FB1C021C1A70BB1C0A1C1A705F
:10222000FB1C1B781B047A68D218FB1C1B781B0450
:102230007968C91880231B02C958BB1C1B78012070
:1022400098400300194380231B02D150C046BD466D
:1022500002B080BD80B500AF134B002228211800CA
:10226000FFF798FF104B00220E211800FFF792FF96
:102270000D4B00221B211800FFF78CFF0A4B002298
:1022800026211800FFF786FF074B81221D21180029
:10229000FFF780FF044B002202211800FFF77AFFAE
:1022A000C046BD4680BDC0460040044080B500AF7A
:1022B000FFF7D0FFA023DB05052201211800FFF75F
:1022C000A3FFA023DB05092201211800FFF79CFFD3
:1022D000A023DB050A2201211800FFF795FFA023A8
:1022E000DB050B2201211800FFF78EFFA023DB0581
:1022F0000B2200211800FFF787FFA023DB05002237
:1023000002211800FFF780FF002000F003F8C0460C
:10231000BD4680BD80B582B000AF0200FB1D1A70C3
:10232000FB1D1A78A023D805130005220121FFF711
:1023300045FFFB1D1A78A023D805130009220121AF
:10234000FFF73CFFFB1D1A78A023D80513000A22D3
:102350000121FFF733FFFB1D1A78A023D8051300D6
:102360000B220121FFF72AFFFB1D1A78A023D805B5
:1023700013000B220021FFF721FFFB1D1A78A02379
:10238000D805130000220221FFF718FFC046BD4602
:1023900002B080BD90B583B000AF0400080011000A
:1023A000FB1D221C1A70BB1D021C1A707B1D0A1C0F
:1023B0001A707B1D1C78BB1D1A78FB1D1978A02391
:1023C000D8052300FFF7FAFEC046BD4603B090BD16
:1023D00080B584B000AF78600A00FB1C1A7000233F
:1023E000BB600F23FB1800221A7021E07B681B786A
:1023F0002F2B03D97B681B78392B02D901235B4231
:102400001EE0BA6813009B009B185B00BB607B68F2
:102410001B781A00BB68D318303BBB607B68013364
:102420007B600F23FB181A780F23FB1801321A70F8
:102430000F23FA18FB1C12781B789A42D6D3BB687C
:102440001800BD4604B080BD90B585B000AF78607F
:102450000A00FB1C1A700E23FB1800221A700E23B0
:10246000FB181C78FB1C1B786421180008F025F968
:102470000300DAB20823FB181A550E23FB181B7849
:102480000822BA18D35C002B14D00E23FB181B783B
:102490000E22BA181278082179188A5C3032D1B22B
:1024A0000822BA18D1540E23FB181A780E23FB18F1
:1024B00001321A70FB1C1B786421180008F0FDF82B
:1024C0000300DBB2642252425343D9B2FB1CFA1C14
:1024D00012788A181A700E23FB181C78FB1C1B78C4
:1024E0000A21180008F0E9F80300DAB20823FB1803
:1024F0001A550E23FB181B780822BA18D35C002B40
:1025000014D00E23FB181B780E22BA18127808215B
:1025100079188A5C3032D1B20822BA18D1540E230D
:10252000FB181A780E23FB1801321A700E23FB18C1
:102530001C78FB1C1B780A21180008F0BEF80B0061
:10254000DBB23033DAB20823FB181A550E23FB181E
:102550001A780E23FB1801321A700F23FB18002281
:102560001A7011E00F23FB181B780822BA18D25CEE
:102570007B681A707B6801337B600F23FB181A7825
:102580000F23FB1801321A700F23FA180E23FB18C1
:1025900012781B789A42E5D37B681800BD4605B0D7
:1025A00090BD80B584B000AF78600A00FB1C1A7043
:1025B0000023BB600F23FB1800221A7045E07B68E4
:1025C0001B782F2B0ED97B681B78392B0AD8BB6858
:1025D0001B01BB607B681B781A00BB68D318303BBB
:1025E000BB6028E07B681B78402B0ED97B681B788A
:1025F000462B0AD8BB681B01BB607B681B781A009E
:10260000BB68D318373BBB6015E07B681B78602B39
:102610000ED97B681B78662B0AD8BB681B01BB6090
:102620007B681B781A00BB68D318573BBB6002E07D
:1026300001235B4211E07B6801337B600F23FB18B1
:102640001A780F23FB1801321A700F23FA18FB1C9B
:1026500012781B789A42B2D3BB681800BD4604B00A
:1026600080BDFFFF80B586B000AFF860B960FB1D8C
:102670001A701723FB1800221A7021E0BB681B7820
:102680001B09DBB21A00144B9A5CFB681A70FB68DA
:102690000133FB60BB681B781A000F2313400E4AFE
:1026A000D25CFB681A70FB680133FB60BB680133C6
:1026B000BB601723FB181A781723FB1801321A7016
:1026C0001723FA18FB1D12781B789A42D6D3FB68A1
:1026D0001800BD4606B080BD2800001080B582B04D
:1026E00000AFFB1D194AD2781A7005F0B1FE031E27
:1026F00028D0174B1B78042B03D0154B1B78052BC8
:1027000020D1FB1D1B78042B0ED101220B210120AF
:10271000FFF740FE0D4B3D229B5C08221343D9B2CC
:102720000A4B3D2299540DE000220B210120FFF7B6
:1027300031FE064B3D229B5C08229343D9B2034BEA
:102740003D229954C046BD4602B080BD58010010DC
:10275000E101001080B500AF254B9B7E1A00254B90
:1027600019001000FEF70AFF0200234B1A60204BED
:10277000DB7E1A00214B19001000FEF7FFFE02005D
:102780001F4B1A601A4B5B7E1A00B4235B00534345
:102790001A001C4B19001000FEF7F0FE02001A4B45
:1027A0001A60134B3B229B5C1A00184B1900100057
:1027B000FEF7E4FE0200164B1A600D4B3A229B5CBA
:1027C0001A00144B19001000FEF7D8FE0200124B3D
:1027D0001A60074B3B229B5C1A00104B190010003B
:1027E000FEF7CCFE02000E4B1A60C046BD4680BD0F
:1027F00058010010D92A0000E40100101D2B000030
:10280000E8010010652B0000EC01001049290000D0
:10281000F8010010ED290000FC01001065280000FF
:10282000F001001080B500AF0B4B1B681800FEF7DD
:10283000DBFE094B1868094B3B229B5C1900FEF735
:102840007AFE074B01221A70034B1B681800FEF733
:10285000B9FEC046BD4680BDF00100105801001011
:10286000F401001080B500AF054B1B681800FEF79F
:10287000BBFE044B00221A70C046BD4680BDC04658
:10288000F0010010F401001080B500AF0A4B1B6886
:102890001800FEF7A9FE00220B210020FFF77AFDA9
:1028A000064B3D229B5C7F221340D9B2034B3D2255
:1028B0009954C046BD4680BDF80100105801001073
:1028C00080B582B000AFFB1D1D4A3B21525C1A70DF
:1028D000FB1D1B78002B0ED100220B210020FFF7DF
:1028E00059FD174B3D229B5C7F221340D9B2144BFC
:1028F0003D22995420E0134B1B681800FEF774FE2C
:10290000104B1A68FB1D1B7819001000FEF713FE10
:102910000C4B1B681800FEF755FE01220B2100200E
:10292000FFF738FD064B3D229B5C80225242134349
:10293000D9B2034B3D229954BD4602B080BDC0467A
:1029400058010010F801001080B500AF0A4B1B6859
:102950001800FEF749FE00220B210020FFF71AFDA8
:10296000064B3D229B5C7F221340D9B2034B3D2294
:102970009954C046BD4680BDF801001058010010B2
:1029800080B582B000AFFB1D104A3A21525C1A702C
:102990000F4B1B681800FEF727FEFB1D1B78002B52
:1029A00010D00B4B1868FB1D1A7813001B019B1AE3
:1029B0009B001900FEF7BFFD054B1B681800FEF7D2
:1029C00001FE00E0C046BD4602B080BD58010010C7
:1029D000FC01001080B500AF034B1B681800FEF728
:1029E00003FEC046BD4680BDFC01001080B582B02C
:1029F00000AF374B1B681800FEF7F6FDFB1D354A8C
:102A0000D2781A70FB1D1B78012B5AD0FB1D1B7846
:102A1000042B33D12F4B3E229B5C01221343D9B2AE
:102A20002C4B3E229954002205210120FFF7B2FCD5
:102A3000284B3D229B5C01229343D9B2254B3D227A
:102A40009954002209210120FFF7A4FC214B3D22CB
:102A50009B5C02229343D9B21E4B3D229954002223
:102A60000A210120FFF796FC1A4B3D229B5C0422B1
:102A70009343D9B2174B3D22995425E0154B3E2282
:102A80009B5C04229343D9B2124B3E229954BB1D46
:102A9000104A3A21525C1A70BB1D1B78002B12D0D1
:102AA0000B4B1868BB1D1A7813001B019B1A9B0067
:102AB0001900FEF740FD064B1B681800FEF782FD6B
:102AC00002E0C04600E0C046BD4602B080BDC04640
:102AD000FC0100105801001080B500AF0C4B1B68C2
:102AE0001800FEF781FD00220B210120FFF752FCA8
:102AF000084B3D229B5C08229343D9B2054B3D22F3
:102B00009954054B01221A70C046BD4680BDC0468F
:102B1000E4010010580100101802001080B500AF49
:102B20000D4B1B681800FEF75FFD00220B210120F2
:102B3000FFF730FC094B3D229B5C08229343D9B23E
:102B4000064B3D229954FFF7BBFE054B01221A703C
:102B5000C046BD4680BDC046E801001058010010C7
:102B60001802001080B500AF204B1B681800FEF75C
:102B70003BFD002209210120FFF70CFC1C4B3D22EC
:102B80009B5C02229343D9B2194B3D2299540022F7
:102B900005210120FFF7FEFB154B3D229B5C012226
:102BA0009343D9B2124B3D22995400220A210120AD
:102BB000FFF7F0FB0E4B3D229B5C04229343D9B2FE
:102BC0000B4B3D2299540A4B3E229B5C012213433E
:102BD000D9B2074B3E229954064B06221A70064B77
:102BE00001221A70C046BD4680BDC046EC010010EF
:102BF00058010010E10100101802001080B500AF6C
:102C000000F0AAF800220B210120FFF7C3FB194BAB
:102C10003D229B5C08229343D9B2164B3D22995426
:102C2000144B9B7E002B1AD0134B1A68114B9B7EC2
:102C300019001000FEF77FFC0F4B1B681800FEF711
:102C4000C1FC01220B210120FFF7A4FB094B3D220F
:102C50009B5C08221343D9B2064B3D22995400F0E5
:102C60009DF8064B03221A70054B01221A70C046CC
:102C7000BD4680BD58010010E4010010E1010010C4
:102C80001802001080B500AF0C4B1B681800FEF74F
:102C9000ABFC00220B210120FFF77CFB084B3D22FF
:102CA0009B5C08229343D9B2054B3D229954054BB6
:102CB00001221A70C046BD4680BDC046E401001026
:102CC000580100101802001080B500AFFFF7DAFFBE
:102CD0001E4BDB7E002B03D1FFF7F2FD002331E01A
:102CE0001B4B1868194BDB7E1A0013001B019B1A43
:102CF0009B001900FEF71FFC154B1B681800FEF720
:102D000061FC01220B210020FFF744FB0F4B3D2209
:102D10009B5C802252421343D9B20C4B3D22995402
:102D200001220B210120FFF735FB084B3D229B5C64
:102D300008221343D9B2054B3D229954054B012279
:102D40001A7001231800BD4680BDC046580100100E
:102D5000E80100101802001080B500AF0C4B1B6892
:102D60001800FEF741FC00220B210120FFF712FBA7
:102D7000084B3D229B5C08229343D9B2054B3D2270
:102D80009954054B01221A70C046BD4680BDC0460D
:102D9000E8010010580100101802001080B500AFC3
:102DA000154B1B681800FEF71FFC134B1A68134BDA
:102DB0005B7E1900B4235B004B4319001000FEF743
:102DC000BAFB0D4B1B681800FEF7FCFBFFF7D8FDA4
:102DD000012209210120FFF7DDFA084B3D229B5C0F
:102DE00002221343D9B2054B3D229954044B0122D0
:102DF0001A70C046BD4680BDEC010010580100109D
:102E00001802001080B500AF0D4B1B681800FEF7CC
:102E1000EBFB002209210120FFF7BCFA094B3D2200
:102E20009B5C02229343D9B2064B3D229954FFF793
:102E3000D1FD054B01221A70C046BD4680BDC0467B
:102E4000EC010010580100101802001080B582B08B
:102E500000AF294B9B781B021AB2274B5B781BB241
:102E600013431AB2BB1D1A80234B3E229B5C1822CF
:102E70009343D9B2204B3E229954BB1D1B881F4A55
:102E8000934218D91E4B1B7801225340DBB2002B12
:102E90002DD01C4B1B78042B03D01A4B1B78052B11
:102EA00025D1154B3E229B5C10221343D9B2124B05
:102EB0003E2299541BE0BB1D1B88002B17D1104BE1
:102EC0001B7801225340DBB2002B10D00D4B1B7836
:102ED000042B03D00B4B1B78052B08D1064B3E224D
:102EE0009B5C08221343D9B2034B3E229954C0463F
:102EF000BD4602B080BDC04658010010DD03000091
:102F0000F4010010E1010010B0B582B000AF7E4BBB
:102F10009B781B021AB27C4B5B781BB213431AB22C
:102F2000BB1D1A80784B1B7B1B021AB2764BDB7AD7
:102F30001BB213431AB23B1D1A80734B1B7A1A0043
:102F40000A239B1A9BB2DB189AB2BB1C391D098855
:102F50008A1A1A806C4BDB799BB2DB1899B23B0062
:102F60003A1D12888A181A80BB1D1B88002B04D0BA
:102F7000BB1D1B88654A93422FD9654B1B78002BDC
:102F80000ED0002205210120FFF704FA5E4B3D22FE
:102F90009B5C01229343D9B25B4B3D2299541CE0C8
:102FA00000220A210120FFF7F5F9574B3D229B5CD7
:102FB00004229343D9B2544B3D2299540022052157
:102FC0000120FFF7E7F9504B3D229B5C0122934320
:102FD000D9B24D4B3D22995493E001220A210120A0
:102FE000FFF7D8F9484B3D229B5C04221343D9B22A
:102FF000454B3D22995405F03DFA031E2FD0BB1DD1
:103000001C883B001D8805F04FFA0300EB189C421A
:103010000DDD01220B210120FFF7BCF93A4B3D22C7
:103020009B5C08221343D9B2374B3D229954BB1DF8
:103030001C883B1D1D8805F037FA0300EB189C42E5
:103040000DDC00220B210120FFF7A4F92E4B3D22BD
:103050009B5C08229343D9B22B4B3D2299542A4BB7
:103060003E229B5C1A00082313400ED0002205214B
:103070000120FFF78FF9244B3D229B5C01229343F3
:10308000D9B2214B3D2299543BE01F4B5B79002B79
:1030900029D1BA1D3B0012881B889A420ED3002208
:1030A00005210120FFF776F9174B3D229B5C012299
:1030B0009343D9B2144B3D22995422E0BA1DBB1C54
:1030C00012881B889A421CD8012205210120FFF793
:1030D00061F90D4B3D229B5C01221343D9B20A4B8F
:1030E0003D2299540DE0002205210120FFF752F9FD
:1030F000054B3D229B5C01229343D9B2024B3D22FA
:103100009954BD4602B0B0BD58010010DD03000067
:10311000F401001080B582B000AF0200FB1D1A70F0
:103120003C4B1B681800FEF75FFA3B4B1B6818000E
:10313000FEF75AFAFFF74EFC002205210120FFF7A7
:1031400029F9364B3D229B5C01229343D9B2334B84
:103150003D229954002209210120FFF71BF92F4B32
:103160003D229B5C02229343D9B22C4B3D229954C1
:1031700000220A210120FFF70DF9284B3D229B5C1C
:1031800004229343D9B2254B3D22995400220B21AE
:103190000120FFF7FFF8214B3D229B5C082293435F
:1031A000D9B21E4B3D229954FB1D1B781A000B21EE
:1031B0000020FFF7EFF8FB1D1B78002B0AD0174B00
:1031C0003D229B5C802252421343D9B2134B3D22D5
:1031D000995408E0114B3D229B5C7F221340D9B2E9
:1031E0000E4B3D2299540D4B3E229B5C0122934392
:1031F000D9B20A4B3E229954084B3E229B5C0422D2
:103200009343D9B2054B3E229954C046BD4602B005
:1032100080BDC046E4010010EC0100105801001010
:1032200080B582B000AF002205210120FFF7B2F87F
:103230003F4B3D229B5C01229343D9B23C4B3D2244
:103240009954002209210120FFF7A4F8384B3D22B0
:103250009B5C02229343D9B2354B3D229954002204
:103260000A210120FFF796F8314B3D229B5C042296
:103270009343D9B22E4B3D22995400220B210120B9
:10328000FFF788F82A4B3D229B5C08229343D9B272
:10329000274B3D229954012200210220FFF77AF8A2
:1032A000234B3D229B5C10221343D9B2204B3D227D
:1032B00099541F4B3E229B5C1A000123134033D0CC
:1032C000FB1D1B4AD2781A70FB1D1B78042B09D0FA
:1032D000174B3E229B5C01229343D9B2144B3E22F2
:1032E000995408E0124B3E229B5C01221343D9B251
:1032F0000F4B3E2299540E4B3E229B5C1A0020231A
:103300009A43131E10D10B4B05221A700022002184
:103310000220FFF73FF8064B3D229B5C10229343AF
:10332000D9B2034B3D229954C046BD4602B080BD80
:1033300058010010E101001080B500AF194B1B7857
:10334000002B17D0184B1B78002B27D1164B1B785E
:10335000180004F041FC0120FFF7DCFE114B0022B5
:103360001A70124B00221A70FFF7AEFC104B0122AC
:103370001A7013E00C4B1B78012B0FD10A4B1B78F2
:10338000180004F029FCFFF77FFA064B01221A709F
:10339000064B01221A70064B01221A70C046BD4628
:1033A00080BDC0460802001058010010E101001065
:1033B0001802001080B582B000AFFB1D424AD278DF
:1033C0001A70FFF7C9FC002205210120FEF7E2FF79
:1033D0003D4B3D229B5C01229343D9B23A4B3D22A7
:1033E0009954002209210120FEF7D4FF364B3D22DB
:1033F0009B5C02229343D9B2334B3D229954002265
:103400000A210120FEF7C6FF2F4B3D229B5C0422C0
:103410009343D9B22C4B3D22995400220B21012019
:10342000FEF7B8FF284B3D229B5C08229343D9B29C
:10343000254B3D229954002200210220FEF7AAFFCD
:10344000214B3D229B5C10229343D9B21E4B3D225F
:10345000995401220B210020FEF79CFF1A4B3D22BC
:103460009B5C802252421343D9B2174B3D229954A0
:10347000FB1D1B78042B23D89A00144BD3181B6810
:103480009F46134B05221A70FFF7CCF918E0104B3A
:1034900003221A70FFF782FC12E00D4B02221A7011
:1034A000FFF7ACFB0CE00A4B06221A70064B3E22DB
:1034B0009B5C04221343D9B2034B3E229954C0466D
:1034C000C046BD4602B080BD58010010E8AF000004
:1034D000E101001080B500AF274B5B79022B07D1CB
:1034E000FFF790FC254B05221A70FFF79BF941E08E
:1034F000214BDB78012B07D1FFF784FC1F4B052202
:103500001A70FFF78FF92DE01B4BDB78042B19D1D4
:1035100004F09EFF03001A0001235340DBB2002B8E
:1035200020D0164B1B78042B1CD1134B3E229B5CE6
:1035300001221343D9B2104B3E2299540F4B06225D
:103540001A700FE00C4BDB78002B0BD10A4B3E229C
:103550009B5C04221343D9B2074B3E229954074B7C
:1035600006221A70FFF7BAF8044B1B78042B01D11E
:10357000FFF7CAFCBD4680BD58010010E1010010F4
:1035800080B582B000AFFB1D274AD2781A70FFF7D2
:10359000BBFC254B5B79022B10D1FB1D1B78042B48
:1035A0003ED1214B3E229B5C01221343D9B21E4BDC
:1035B0003E2299541D4B06221A7031E0FB1D1B78E8
:1035C000022B29D002DC012B05D026E0032B06D0EC
:1035D000042B0AD021E0154B05221A701DE0134B75
:1035E00004221A70FFF7DAFB17E004F031FF031E24
:1035F00005D00E4B04221A70FFF7D0FB0DE00A4BEA
:103600003E229B5C01221343D9B2074B3E229954C0
:10361000064B06221A7000E0C046FFF75FF800E094
:10362000C046BD4602B080BD58010010E101001047
:1036300080B584B000AF5B4B00221A70FEF7DCF857
:103640000520FEF79BF8FFF785F804F067FEFEF70C
:10365000CFFC0020FFF75EFD00F0EEFB00F07CFCED
:103660000300FB6001F04CFB02F078F902F08AFEE7
:103670004D4B1B68BB60FB68180000F0D1FA01F0ED
:103680006BFBFDF7CBFA04F055FEFFF7DFFB02F012
:103690006DF9031E17D0FFF74FFE444B1B78062B26
:1036A00016D89A00424BD3181B689F46FFF782FE3C
:1036B0000EE0FFF70FFF0BE0FFF762FF08E0FFF7F8
:1036C000AFFDC04604E03B4B00221A70FFF734FE0A
:1036D000364B1B78052B21D1324B1B78002B0ED09B
:1036E000012209210120FEF755FE324B3D229B5C51
:1036F00002221343D9B22F4B3D22995411E00022EC
:1037000009210120FEF746FE2A4B3D229B5C022246
:103710009343D9B2274B3D22995402E0214B00221A
:103720001A70244B3E229B5C1A0020239A43131EDE
:103730000ED0012200210220FEF72CFE1D4B3D225F
:103740009B5C10221343D9B21A4B3D2299540DE0D1
:10375000002200210220FEF71DFE164B3D229B5C3D
:1037600010229343D9B2134B3D2299540E4B1B6840
:103770007B600D4B1B681A00BB689A420ED97A68B1
:10378000BB68D21A0C4B1A600C4B1A680A4B1B68A8
:103790009A4203D2084B1A68084B1A60FEF718F8D1
:1037A00066E7C0467A030010C8010010E10100106E
:1037B000FCAF0000580100100002001004020010CD
:1037C00080B500AFFDF7C8FBFDF7E0FDFDF72EFE6D
:1037D00096239B00180002F08BFF084B180002F0A4
:1037E0000BFDFEF763FD02F0EDFBFDF7FBF9FEF7C5
:1037F000CBFB04F0D1FAC046BD4680BDA0860100D7
:1038000080B500AF00F032FB00F000FA044B1B78EB
:103810000133DAB2024B1A70C046BD4680BDC046C5
:103820001002001080B586B000AF7860214B180000
:1038300006F0D6FE02007B689B187B611223FB1802
:1038400000221A800023FB6028E07B691B782F2B65
:1038500003D97B691B78392B02D901235B4224E011
:103860001223FB181B881A1C9200D318DB189AB27B
:103870001223FB181A807B691B789AB21223FB185B
:103880001B88D3189BB2303B9AB21223FB181A80C4
:103890007B6901337B61FB680133FB60FB68022BB2
:1038A000D3DD1223FB1800229B5E1800BD4606B034
:1038B00080BDC04618B0000080B588B000AFF86089
:1038C000B9607A60FB68FB61BB68BB6100237B6108
:1038D00026E0FB681A78BB691B789A421AD1FB680C
:1038E000FB61FB691B78002B06D1BB691B78202B81
:1038F00002D1BB69013318E0FB691A78BB691B78F8
:103900009A4206D1FB690133FB61BB690133BB619C
:10391000E7E7C046BB690133BB617B6901337B616B
:103920007A697B689A42D4D300231800BD4608B058
:1039300080BD80B588B000AFF860B9607A60FB6880
:10394000FB61BB68BB6100237B6121E0FB681A78E7
:10395000BB691B789A4215D1FB68FB61FB691B7838
:10396000002B01D1BB6918E0FB691A78BB691B7891
:103970009A4206D1FB690133FB61BB690133BB612C
:10398000ECE7C046BB690133BB617B6901337B61F6
:103990007A697B689A42D9D300231800BD4608B0E3
:1039A00080BDFFFF80B586B000AF786039603A68AF
:1039B0007968334B1800FFF77FFF03003B613B69D9
:1039C000002B02D101235B4256E03B697B617A68A0
:1039D0003B68D2187B699A4202D801235B424BE0D4
:1039E0007B691B783A2B43D17B69023B022118008B
:1039F000FEF7EEFC0300FB60FB68002B02DA0123FC
:103A00005B4239E0FB68E12212015343BB607B69F2
:103A1000013302211800FEF7DBFC0300FB60FB68AA
:103A2000002B02DA01235B4226E0FA6813001B0137
:103A30009B1A9B001A00BB689B18BB607B69043310
:103A400002211800FEF7C4FC0300FB60FB68002B9A
:103A500002DA01235B420FE0BA68FB68D318BB604F
:103A6000BB68084A94466344BB60C046BB6803E039
:103A70007B6901337B61AAE71800BD4606B080BDB3
:103A800024B00000907E000080B582B000AF02003C
:103A9000FB1D1A70034BFA1D12781A70C046BD4602
:103AA00002B080BD0902001090B585B000AF78600B
:103AB000534B1B785BB20133072B00D998E09A0077
:103AC000504BD3181B689F467B6818787B685968F1
:103AD0007B689B891A0001F03FFB03001AB27B68E8
:103AE000DA847B6826229B5E022B03D1444B03229F
:103AF0001A7011E07B6826229B5E013308D1404B8F
:103B0000FF221A70FFF77CFE3D4B1B785BB272E020
:103B10003B4B1B785BB26EE07B6818787B689969D9
:103B20007B681B699BB21A0001F024FC0300FB6058
:103B3000FB68002B06DA324BFF221A70304B1B78E1
:103B40005BB258E0FB68002B03DD2D4B04221A709A
:103B500003E02B4B1B785BB24DE07B6818787B68E9
:103B6000D9697B685B699BB21A0001F052FD0300C2
:103B70001A007B681A627B681B6A002B18D0204BE6
:103B800005221A707B68DB691800FFF74BFE030003
:103B90001A007B689A847B68DA697B685B69190024
:103BA0001000FFF7FFFE03001A00174B1A6003E036
:103BB000134B1B785BB21EE07B681B780B22BC1892
:103BC000180001F073FB030023700B23FB181B7814
:103BD0005BB2022B03D10A4B06221A7008E00B23BA
:103BE000FB181B785BB2013302D1054BFF221A7020
:103BF000034B1B785BB21800BD4605B090BDC046B4
:103C0000090200102CB000000C02001080B500AFBB
:103C1000024B00221A70C046BD4680BD1102001042
:103C200080B584B000AF786000F03AF903001A0064
:103C300001235340DBB2002B01D0FFF7E1FD7B4BAA
:103C40001B78042B00D9ECE09A00794BD3181B6841
:103C50009F467B681B785BB2D8B27B685A8800238A
:103C6000012101F055F903001A007B681A707B6886
:103C70001B785BB2DBB2180001F016FA0300012BCF
:103C800000D0C7E0694B01221A707B681B785BB2D9
:103C9000DBB2180003F04BFA03001A000F23FB18E5
:103CA0001A700F23FB181B785BB2172B00D0B1E002
:103CB0005E4B02221A70ADE07B681B785BB2DBB210
:103CC000180003F034FA03001A000F23FB181A70CF
:103CD0000F23FB181B785BB2172B03D1534B022227
:103CE0001A7099E00F23FB181B785BB21C2B06D0CF
:103CF0000F23FB181B785BB2002B00D08CE04B4BE2
:103D000000221A7088E07B681B785BB2D8B27B68AF
:103D1000D9687B681B699BB21A0001F00DFC020098
:103D20007B685A617B685B69002B0CDD7B689B6953
:103D3000002B04D07B689B697A68100098473B4B46
:103D400003221A706AE07B685B69002B66DA374BE6
:103D500000221A7062E07B689B68002B26DD7B687E
:103D60001B785BB2D8B27B6859687B689B689BB252
:103D70001A0001F0FFFA02000F23FB181A700F233C
:103D8000FB181B785BB2002B07DD2A4BFA2292004E
:103D90001A60264B04221A7042E00F23FB181B788E
:103DA0007F2B3DD9214B00221A7039E01F4B002296
:103DB0001A7035E07B681B785BB2DBB2180003F049
:103DC0009FF903001A000F23FB181A700F23FB182A
:103DD0001B781A00102313400ED07B681B785BB24F
:103DE000DAB20F23FB181B781900100003F099F8C2
:103DF0000E4B00221A7014E00E4B1B68002B03DCE4
:103E00000A4B00221A700CE00A4B1B685A1E094B21
:103E10001A6006E0C04604E0C04602E0C04600E08A
:103E2000C046C046BD4604B080BDC0461102001069
:103E30004CB000001402001080B500AF02F0F0FE9C
:103E4000064B180003F056FD054B064A0649034889
:103E500002F0FAFFC046BD4680BDC0465C060010B9
:103E60007D010010790100107501001080B500AFD0
:103E700002F0A2FE064B180003F03CFD054B064A7B
:103E80000649034802F0E0FFC046BD4680BDC0467B
:103E90005C0600107D010010790100107501001012
:103EA00080B582B000AF3900F0231B010422180056
:103EB00002F046FF3B001A78254B5B7F9A4212D1F5
:103EC0003B005A78224B9B7F9A420CD13B009A7858
:103ED0001F4BDB7F9A4206D13B00DA781C4B202136
:103EE0005B5C9A4201D000232DE0390090231B0136
:103EF0000622180002F024FF3B001A78154B1B78AD
:103F00009A421DD13B005A78124B5B789A4217D1E6
:103F10003B009A780F4B9B789A4211D13B00DA789C
:103F20000C4BDB789A420BD13B001A79094B1B7979
:103F30009A4205D13B005A79064B5B799A4201D0EF
:103F4000002300E001231800BD4602B080BDC0463A
:103F5000580100105C06001080B500AF0E4B012226
:103F60001A700D4B50225A800B4B0C4A9A610A4B27
:103F70000B4A5A60084B802252009A60064B094A4D
:103F8000DA60054B802252001A61034B00225A610D
:103F9000014B1800BD4680BD680600103941000085
:103FA000E8080010140A001080B588B000AFF8606F
:103FB0007A600B23FB180A1C1A700023FB612C4B40
:103FC0001B68BB612B4B1B687B61BB691B78002B9B
:103FD0000DD0BB691A78FB681A70FB680133FB606F
:103FE000BB690133BB61FB690133FB61EDE7C0468F
:103FF0000B23FB181B78DB18DAB2FB6811001800E2
:10400000FEF722FA03003B613A69FB68D31A1A00F3
:10401000FB699B18FB613B69FB607B691B78002B8C
:104020000DD07B691A78FB681A70FB680133FB605E
:104030007B6901337B61FB690133FB61EDE7C046BE
:104040000B23FB181A787968FB681800FEF70AFB47
:104050000300FB600B23FB181B785B001A00FB6955
:104060009B18FB61FB691800BD4608B080BDC046C7
:10407000280100102C01001080B584B000AF7860DA
:1040800039600023FB603B681B78002B0DD03B6838
:104090001A787B681A707B6801337B603B68013358
:1040A0003B60FB680133FB60EDE7C046FB6818002E
:1040B000BD4604B080BD80B586B000AFF8607A60C0
:1040C0000A23FB180A1C1A801623FB1800221A80E8
:1040D0001FE0FB6802211800FEF763FA03003B6152
:1040E0003B69002B01DA002322E03B69DAB27B68EE
:1040F0001A707B6801337B60FB680133FB60FB68EF
:104100000133FB601623FB181A881623FB180132B3
:104110001A801623FA180A23FB1812881B889A4261
:10412000D7D3FB681B78202B01D0002300E00123AC
:104130001800BD4606B080BDB0B586B000AF78604F
:104140007B68FB60FB68994A5A60FB6800229A60B2
:10415000FB68D968FB685B691A00954B1800FFF78C
:10416000E8FB03007B617B69002B04D01323FB1861
:1041700000221A701FE0FB68D968FB685B691A00AF
:104180008C4B1800FFF7D5FB03007B617B69002B8C
:104190000DD1FB685A68884B1B6819001000FFF7A7
:1041A0006BFF03001A00FB689A600123FAE01323F7
:1041B000FB1801221A707B691B783F2B0DD0FB681E
:1041C0005A687D4B1B6819001000FFF755FF03006C
:1041D0001A00FB689A600123E4E07B6901337B618C
:1041E0001223FB1800221A701223FB1800229A5681
:1041F000724913005B009B189B005B58002B0DD18C
:10420000FB685A686E4B1B6819001000FFF734FFFB
:1042100003001A00FB689A600123C3E01223FB1815
:1042200000229A56654913005B009B189B00585862
:10423000FB685B69143B1A007B691900FFF779FB87
:104240000300BB60BB68002B0AD11223FB181B784C
:104250005BB2DBB20133DAB21223FB181A70C3E788
:10426000C046BB681B783D2B0DD0FB685A68524B8B
:104270001B6819001000FFF7FFFE03001A00FB681F
:104280009A6001238EE0BB680133BB601323FB18E7
:104290001B78012B20D11223FB1800229A56474984
:1042A00013005B009B189B00CB1806331988454A06
:1042B000BB681800FFF7FFFE031E0DD1FB685A68AC
:1042C000414B1B6819001000FFF7D6FE03001A00CF
:1042D000FB689A60012365E01223FB1800229A56BE
:1042E000364913005B009B189B00CB1808331C68F1
:1042F0001223FB1800229A56304913005B009B18CA
:104300009B00CB1804331D781223FB1800229A5609
:104310002A4913005B009B189B00CB1806331B88AF
:10432000DAB228491323FB1818780B002900A0479C
:10433000031E0DD1FB685A681F4B1B681900100043
:10434000FFF79AFE03001A00FB689A60012329E038
:104350001323FB181B78002B17D1FB685868122316
:10436000FB1800229A56154913005B009B189B000E
:10437000CB1806331B88DBB2124A1900FFF714FE74
:1043800003001A00FB689A600BE0FB685A680F4B49
:104390001B6819001000FFF76FFE03001A00FB688E
:1043A0009A6001231800BD4606B0B0BDE8080010B1
:1043B0009CB30000A8B300003C01001038000010BE
:1043C0003801001084080010340100103001001082
:1043D00090B585B000AF0400080011003B60FB1DE4
:1043E000221C1A70BB1D021C1A707B1D0A1C1A703D
:1043F000FB1D1B78002B20D10F23FB1800221A7005
:1044000013E0BB1D1A780F23FB181B78D3181F4A23
:10441000D25C3B681A703B6801333B600F23FB188A
:104420001A780F23FB1801321A700F23FA187B1D1C
:1044300012781B789A42E4D322E00F23FB18002263
:104440001A7013E0BB1D1A780F23FB181B78D318C2
:104450003A6811780D4AD1543B6801333B600F2311
:10446000FB181A780F23FB1801321A700F23FA1861
:104470007B1D12781B789A42E4D3054B01221A70F7
:1044800001231800BD4605B090BDC046580100107C
:104490001802001090B585B000AF040008001100AC
:1044A0003B60FB1D221C1A70BB1D021C1A707B1D79
:1044B0000A1C1A70FB1D1B78002B1FD10F23FB1841
:1044C00000221A7013E0BB1D1A780F23FB181B780B
:1044D000D3180D4AD25C3B681A703B6801333B60CD
:1044E0000F23FB181A780F23FB1801321A700F23C1
:1044F000FA187B1D12781B789A42E4D30123180026
:10450000BD4605B090BDC0465801001090B583B0BF
:1045100000AF0400080011003B60FB1D221C1A7054
:10452000BB1D021C1A707B1D0A1C1A70FB1D1B7818
:10453000002B1DD1114B3C229A5C3B681A703B68E2
:1045400001330E4A3D21525C1A703B6802330B4A1C
:104550003E21525C1A700A4B1B78002B08D03B6836
:1045600001333A680132127840210A43D2B21A70FC
:1045700001231800BD4603B090BDC046580100108D
:104580007A03001090B585B000AF04000800110058
:104590003B60FB1D221C1A70BB1D021C1A707B1D88
:1045A0000A1C1A70FB1D1B78002B20D10F23FB184F
:1045B00000221A7013E0BB1D1A780F23FB181B781A
:1045C000D3181F4AD25C3B681A703B6801333B60CA
:1045D0000F23FB181A780F23FB1801321A700F23D0
:1045E000FA187B1D12781B789A42E4D323E0BB1D96
:1045F0001B783A681178124AD154BB1D1B780533D9
:104600003A6851790E4AD154BB1D1B7806333A687B
:1046100091790B4AD154BB1D1B7807333A68D17985
:10462000074AD154BB1D1B7808333A68117A044AF3
:10463000D154FCF703FA01231800BD4605B090BD24
:104640005801001090B583B000AF040008001100BD
:104650003B60FB1D221C1A70BB1D021C1A707B1DC7
:104660000A1C1A70FB1D1B78002B06D13B681A1D13
:104670003B681100180003F02DFF01231800BD4610
:1046800003B090BD90B583B000AF040008001100E6
:104690003B60FB1D221C1A70BB1D021C1A707B1D87
:1046A0000A1C1A70FB1D1B78002B05D103F048F87B
:1046B00003001A003B681A7001231800BD4603B0BE
:1046C00090BD90B583B000AF0400080011003B60BE
:1046D000FB1D221C1A70BB1D021C1A707B1D0A1CBC
:1046E0001A70FB1D1B78012B05D102F0FFFF0300A0
:1046F0001A003B681A7001231800BD4603B090BD34
:1047000090B585B000AF0400080011003B60FB1DB0
:10471000221C1A70BB1D021C1A707B1D0A1C1A7009
:10472000FB1D1B78002B10D1134B1B685B68FB60D3
:104730003B680133FA68D2B21A70FB681B0AFB604F
:10474000FB68DAB23B681A7010E03B681B78FB60CC
:10475000FB681B02FB603B6801331B781A00FB6897
:104760001343FB60044B1B68FA685A60012318006E
:10477000BD4605B090BDC0466406001090B583B03C
:1047800000AF0400080011003B60FB1D221C1A70E2
:10479000BB1D021C1A707B1D0A1C1A70FB1D1B78A6
:1047A000002B05D1724B3D229A5C3B681A70D9E010
:1047B0006F4B1B78002B00D0D4E03B681B785BB2BA
:1047C000002B0FDA01220B210020FDF7E3FD684BDF
:1047D0003D229B5C802252421343D9B2644B3D225E
:1047E00099540DE000220B210020FDF7D3FD604B12
:1047F0003D229B5C7F221340D9B25D4B3D229954F0
:104800003B681B781A00012313400ED001220521BA
:104810000120FDF7BFFD564B3D229B5C0122134357
:10482000D9B2534B3D2299540DE0002205210120BD
:10483000FDF7B0FD4E4B3D229B5C01229343D9B264
:104840004B4B3D2299543B681B781A0002231340BE
:104850000ED0012209210120FDF79CFD444B3D2291
:104860009B5C02221343D9B2414B3D2299540DE087
:10487000002209210120FDF78DFD3D4B3D229B5C6F
:1048800002229343D9B23A4B3D2299543B681B789C
:104890001A00042313400ED001220A210120FDF743
:1048A00079FD334B3D229B5C04221343D9B2304B3C
:1048B0003D2299540DE000220A210120FDF76AFDF6
:1048C0002B4B3D229B5C04229343D9B2284B3D22C3
:1048D00099543B681B781A00082313400ED001221C
:1048E0000B210120FDF756FD214B3D229B5C082248
:1048F0001343D9B21E4B3D2299540DE000220B21E7
:104900000120FDF747FD1A4B3D229B5C0822934393
:10491000D9B2174B3D2299543B681B781A001023DB
:1049200013400ED0012200210220FDF733FD104B71
:104930003D229B5C10221343D9B20D4B3D2299546A
:104940000DE0002200210220FDF724FD084B3D224E
:104950009B5C10229343D9B2054B3D229954054BE1
:1049600001221A7001231800BD4603B090BDC04655
:10497000580100101802001090B583B000AF040079
:10498000080011003B60FB1D221C1A70BB1D021C9D
:104990001A707B1D0A1C1A70FB1D1B78002B04D19A
:1049A0000B4B1A783B681A700DE00A4B1B78012BF1
:1049B00009D13B681B7801221340DAB2044B1A700C
:1049C000054B01221A7001231800BD4603B090BDAB
:1049D0007A030010580100101802001090B583B03F
:1049E00000AF0400080011003B60FB1D221C1A7080
:1049F000BB1D021C1A707B1D0A1C1A70FB1D1B7844
:104A0000002B49D13B6818221A703B680133254AB4
:104A100012781A703B680233224A52791A703B6846
:104A20000333204A52781A703B6804331D4A927847
:104A30001A703B6805331B4AD2781A703B680633FC
:104A4000184A12791A703B680733164AD27A1A70DC
:104A50003B680833134A127B1A703B680933114ACA
:104A60003C21525C1A703B680A330E4A3D21525C6D
:104A70001A700D4B1B78002B08D03B680A333A683C
:104A80000A32127840210A43D2B21A703B680B33C3
:104A9000044A3E21525C1A7001231800BD4603B03F
:104AA00090BDC046580100107A03001080B588B050
:104AB00000AF786039600023FB613B681B78002BF6
:104AC0000DD03B681A787B681A707B6801337B6075
:104AD0003B6801333B60FB690133FB61EDE7C04696
:104AE00070497B6806221800FDF7BCFD03007B605F
:104AF000FB690C33FB616C497B6802221800FDF7EF
:104B0000B1FD03007B60FB690433FB6167497B688F
:104B100001221800FDF7A6FD03007B60FB6902334C
:104B2000FB61604B3D229A5C1423FB181A705D4BAD
:104B30003E229A5C1423FB185A705D4B1B78002BA5
:104B400008D01423FB181B7840221343DAB2142335
:104B5000FB181A701423F9187B6802221800FDF75D
:104B600081FD03007B60FB690433FB6151497B6875
:104B700004221800FDF776FD03007B60FB69083313
:104B8000FB610C23F918F0231B010422180002F02A
:104B9000D7F80C23F9187B6804221800FDF762FD92
:104BA00003007B60FB690833FB610C23F918902339
:104BB0001B010622180002F0C3F80C23F9187B68C9
:104BC00006221800FDF74EFD03007B60FB690C33E5
:104BD000FB6139497B6802221800FDF743FD0300A1
:104BE0007B60FB690433FB6134497B680122180058
:104BF000FDF738FD03007B60FB690233FB61304940
:104C00007B6804221800FDF72DFD03007B60FB6923
:104C10000833FB612B497B6802221800FDF722FD57
:104C200003007B60FB690433FB6127497B68012239
:104C30001800FDF717FD03007B60FB690233FB6181
:104C400022497B6804221800FDF70CFD03007B60FD
:104C5000FB690833FB611E497B6804221800FDF7DD
:104C600001FD03007B60FB690833FB61194B1B6886
:104C7000BB61BB691B78002B0DD0BB691A787B68C0
:104C80001A707B6801337B60BB690133BB61FB69D0
:104C90000133FB61EDE7C046FB691800BD4608B073
:104CA00080BDC0465801001063010010650100106E
:104CB0007A03001075010010140B00101002001090
:104CC000D8010010DC010010DE010010000200100D
:104CD000040200104401001080B500AF024B012215
:104CE0001A70C046BD4680BD1802001080B500AFE6
:104CF000024B01221A70C046BD4680BD180200104A
:104D000080B500AF0F4B19003C20FCF737FC0200C8
:104D10000D4B1A600C4B1B681800FCF753FC0B4B37
:104D200019000A20FCF72AFC0200094B1A60084B04
:104D30001B681800FCF758FC064B01221A70C0468D
:104D4000BD4680BDD94C000064060010ED4C00004B
:104D5000100A00101802001090B583B000AFFC1DBF
:104D60002F4B1800FEF7A0FE030023702D4B1B787D
:104D7000DBB2012B34D1FB1D1B785BB2002B2FD192
:104D8000284B00221A70002300220121002000F08D
:104D9000BFF80300DAB2224B1A70214B224A5A6044
:104DA0001F4B00229A601E4B50229A811C4B1F4AB7
:104DB0009A611F4B1A681D4B11001800FFF776FE11
:104DC0000200174B1A61164B1A4ADA61144B802203
:104DD00052005A61124B00221A620220FEF754FE62
:104DE000FB1D1B785BB2062B04D0FB1D1B785BB24E
:104DF000013311D10A4B1B78180000F003F9002091
:104E0000FEF742FEFB1D1B785BB2062B04D10A4B5A
:104E10001B681800FBF772FEC046BD4603B090BD8C
:104E2000E809001018020010850100108406001027
:104E300040010010840700100C02001080B582B001
:104E400000AF0200FB1D1A700A4B02221A60FB1D04
:104E50001B78180002F03DF9031E04D0054B1B68B7
:104E6000002B02D0F3E7C04600E0C046C046BD4676
:104E700002B080BDCC01001080B500AF204B1B7884
:104E800001225340DBB2002B13D002F0A5FC03003B
:104E90001A001C4B1A801B4B1B88B422D20094466C
:104EA00063449BB2180002F0B7FC154B01221A7044
:104EB0000EE0144B1B8801339AB2124B1A80114B2F
:104EC0001B881A00FF23134002D10D4B00221A70D9
:104ED0000C4B1B881BB2002B04DA0A4B1B880A4AB6
:104EE000934207D9074B094A1A80064B1B881800C2
:104EF00002F092FC034B1B881800BD4680BDC046E3
:104F00001C020010140B001048EE00000080FFFF90
:104F1000B0B584B000AF05000C0010001900FB1DF7
:104F20002A1C1A70BB1D221C1A703B1D021C1A8001
:104F3000FB1C0A1C1A703B1D1B88002B04D13C1D56
:104F4000FFF79AFF03002380FB1D1B78180000F079
:104F500059F8FB1C1B785BB20F2293435AB2BB1D5E
:104F60001B785BB213435BB2DAB2FB1D1B781100F6
:104F7000180001F0A0FF3B1D1A88FB1D1B781100D3
:104F8000180001F0EAFFFB1D1B780121180001F059
:104F9000ACFFFB1D1B781800FFF750FF174B0222D8
:104FA0001A600F23FC18FB1D1B78180002F0BFF8D5
:104FB000030023700F23FB181B78002B04D10F4B29
:104FC0001B68002B02D0ECE7C04600E0C046FB1D8A
:104FD0001B7801229A4013001BB2DB431BB2084A24
:104FE000128812B213401BB29AB2054B1A80FB1DF5
:104FF0001B785BB21800BD4604B0B0BDCC010010F8
:105000001A02001090B585B000AF0200FB1D1A70A7
:105010000F23FC18FB1D1B78180002F05AF8030040
:105020002370FB1D1B781021180001F05EFFFB1D93
:105030001B781800FFF702FFFB1D1B78FF211800EB
:1050400001F06FFF164B02221A600F23FC18FB1DA4
:105050001B78180002F06BF8030023700F23FB1875
:105060001B78002B04D00E4B1B68002B02D0ECE702
:10507000C04600E0C046FB1D1B7801229A40130089
:105080001BB2DB431BB2074A128812B213401BB299
:105090009AB2044B1A8001231800BD4605B090BD9A
:1050A000CC0100101A02001090B585B000AF0200CC
:1050B000FB1D1A700F23FC18FB1D1B78180002F053
:1050C00036F8030023700F23FB181B78132B02D034
:1050D00003235B4239E0FB1D1B780221180001F01D
:1050E00004FFFB1D1B781800FFF7A8FE194B0222D6
:1050F0001A600F23FC18FB1D1B78180002F017F82C
:10510000030023700F23FB181B78142B1CD00F23D4
:10511000FB181B78172B17D00F23FB181B78002BBD
:1051200004D00F23FB181B781C2B07D1FB1D1B7809
:105130001800FFF767FF04235B4206E0054B1B687E
:10514000002B00D0D5E7C04601231800BD4605B0AE
:1051500090BDC046CC01001090B585B000AF39605D
:105160001100FB1D021C1A703B1D0A1C1A804E4BBD
:10517000DB7A5BB2012B4AD003DC013300DA8CE02E
:1051800002E0022B00D088E0474B0122DA72464B46
:10519000FA1D12781A70444B3A685A60424B3A1D15
:1051A00012881A81404B00229A723F4B1B780F22C3
:1051B000BC18180001F0BBFF030023700F23FB187D
:1051C0001B78132B09D0384BFD229A72364BFF22E5
:1051D000DA72354BDB7A5BB262E0334B1B783A68AC
:1051E0001100180001F0E2FE2F4B1A783B1D1B88BE
:1051F0001900100001F0F2FE2B4B1B78042118005F
:1052000001F073FE284B1B781800FFF717FE264BA2
:105210001B780F22BC18180001F089FF03002370CF
:105220000F23FB181B78172B09D11F4B01229A72F1
:105230001D4B0222DA721C4BDB7A5BB230E00F238B
:10524000FB181B78002B09D1174BFC229A72164BC6
:10525000FF22DA72144BDB7A5BB221E0124B1B782F
:105260000F22BC18180001F04BFF030023700F231E
:10527000FB181B78082213400FD00B4B1B7808211A
:10528000180001F04EFE084BF3229A72064BFF22E3
:10529000DA72054BDB7A5BB202E0034BDB7A5BB27E
:1052A0001800BD4605B090BD2002001090B585B035
:1052B00000AF0200FB1D1A702D4B9B785BB2012BD7
:1052C0001AD002DC01334CDB01E0022B49D1284B20
:1052D000FA1D12781A70264B00225A70244B1B7844
:1052E0000821180001F001FE214B1B781800FFF780
:1052F000A5FD1F4B01229A700F23FC18FB1D1B7884
:10530000180001F014FF030023700F23FB181B7813
:10531000002B09D1164B01225A70154B02229A70AC
:10532000134B9B785BB21FE0114B1B78180001F008
:10533000E7FE03001A000E23FB181A700E23FB1859
:105340001B781A00082313400BD0094B1B78082147
:10535000180001F0E6FD064BF3225A70044BFF22C1
:105360009A70034B9B785BB21800BD4605B090BDA8
:105370002C02001090B585B000AF39601100FB1D04
:10538000021C1A703B1D0A1C1A800F23FC18FB1DFF
:105390001B78180001F0CBFE030023700F23FB18CD
:1053A0001B78172B0CD00F23FB181B781C2B07D056
:1053B000FB1D1B781800FFF725FE07235B42B5E0B5
:1053C000FB1D1B7801229A4013001BB2DB431BB26A
:1053D000584A128812B213401BB29AB2554B1A8027
:1053E000544B1B881A00FB1D1B781A411300012225
:1053F000134035D00F23FC18FB1D1B78180001F05B
:105400007FFE030023700F23FB181B78102213402C
:1054100016D0FB1D1B781021180001F082FDFB1D2A
:105420001B7801229A4013001BB2DB431BB2414A96
:10543000128812B213401BB29AB23E4B1A800FE090
:105440000F23FB181B780822134007D0FB1D1B7885
:105450001800FFF7D7FD0D235B4267E0002365E0EE
:105460000C23FC18FB1D1B78180001F091FE0300B3
:1054700023800C23FA183B1D12881B889A4204D201
:105480003B1D0C22BA1812881A800C23FC18FB1D35
:105490001B78180001F062FF030023800F23FC1823
:1054A000FB1D1B78180001F042FE030023700F2340
:1054B000FB181B78172B0CD00F23FB181B781C2B09
:1054C00007D0FB1D1B781800FFF79CFD07235B42EC
:1054D0002CE03A1D0C23FB1812881B889A4201D934
:1054E000002323E0C0463B1D1A883968FB1D1B784A
:1054F000180001F09BFFFB1D1B782021180001F014
:10550000F4FCFB1D1B781800FFF798FCFB1D1B78B3
:1055100001229A4013001AB2064B1B881BB2134398
:105520001BB29AB2034B1A803B1D1B881800BD4664
:1055300005B090BD1A02001090B585B000AF39607B
:105540001100FB1D021C1A703B1D0A1C1A800E2341
:10555000FC18FB1D1B78180001F000FE03002380DF
:105560000E23FC18FB1D1B78180001F091FE0300B0
:1055700023800D23FC18FB1D1B78180001F0D7FDBC
:10558000030023700D23FB181B78172B14D00D2359
:10559000FB181B781C2B07D1FB1D1B781800FFF78D
:1055A00031FD07235B4230E0FB1D1B781800FFF73D
:1055B00029FD07235B4228E00E23FB181B88002BE4
:1055C00001D1002321E0C0460E23FA183B1D1288AA
:1055D0001B889A4204D23B1D0E22BA1812881A80E8
:1055E0003B1D1A883968FB1D1B78180001F065FF08
:1055F000FB1D1B784021180001F077FCFB1D1B7878
:105600001800FFF71BFC3B1D1B881800BD4605B0AA
:1056100090BD90B585B000AF39601100FB1D021C34
:105620001A703B1D0A1C1A800E23FC18FB1D1B78E8
:10563000180001F093FD030023800E23FC18FB1DCE
:105640001B78180001F024FE030023800D23FC18B2
:10565000FB1D1B78180001F06AFD030023700D2369
:10566000FB181B78172B28D00D23FB181B781C2B3D
:105670001BD10E23FB181B88002B25D1FB1D1B788B
:10568000180001F09FFE03001C00FB1D1B78180092
:1056900001F064FD03009C420FD3FB1D1B78180032
:1056A000FFF7B0FC07235B4232E0FB1D1B781800BC
:1056B000FFF7A8FC07235B422AE00E23FB181B8898
:1056C000002B03D1002323E0C04600E0C0460E2398
:1056D000FA183B1D12881B889A4204D23B1D0E22E9
:1056E000BA1812881A803B1D1A883968FB1D1B786E
:1056F000180001F0E2FEFB1D1B784021180001F0AC
:10570000F4FBFB1D1B781800FFF798FB3B1D1B8863
:105710001800BD4605B090BD80B584B000AF020052
:105720003960FB1D1A70FA1D01234821002003F087
:105730001FFD0300FB600823FA1802234821002004
:1057400003F052FD0300FB600B23FB180822BA187C
:1057500012781A700823FB185A780823FB181A705D
:105760000823FB180B22BA1812785A700823FB186A
:105770001A883B681A80FB681800BD4604B080BDDB
:1057800080B586B000AF0200FB1D1A703B1D0A1CDD
:105790001A800C23FB183A1D12881A801023FB185C
:1057A000FA1D12781A700C23FB185A781023FB1874
:1057B0005A700C23FB181A781023FB189A701023C8
:1057C000FA1803234821002003F0D2FC03007B6178
:1057D0007B691800BD4606B080BDFFFF80B584B070
:1057E00000AF0200BB1D1A800E23FB181900012018
:1057F000FFF792FF0E23FB181B881BB2002B00DB68
:10580000F2E7C046BB1D1B88134A13439BB2190025
:105810000120FFF7B5FF0E23FB1819000120FFF749
:105820007BFF0E23FB181B881BB2002B00DBF2E76B
:10583000C0460C23FB1819000020FFF76DFF0C2356
:10584000FB1800229B5E002B00DA0F331B111BB2EA
:105850001800BD4604B080BD0080FFFF80B584B055
:1058600000AFF8607A600B23FB180A1C1A700B2338
:10587000FB181A78FB6892007968D150C046BD4683
:1058800004B080BD80B584B000AFF860B960FB1D86
:105890001A70BB681B04FA68D318FA1D127801212C
:1058A00091400A009200D258FB1D1B78DA40130089
:1058B000012213405A1E9341DBB21800BD4604B0CA
:1058C00080BD80B582B000AF786008001100FB1C7D
:1058D000021C1A70BB1C0A1C1A70FB1C1B781B04D0
:1058E0007A68D218FB1C1B781B047968C9188023BE
:1058F0001B02CB58B91C0978012088400100C9431C
:10590000194080231B02D150C046BD4602B080BD65
:1059100080B500AF0E4B002227211800FFF79EFF35
:10592000A023DB05022203211800FFF7CAFF094B61
:1059300019003220FBF734FE0200074B1A60064BB9
:105940001B681800FBF73EFEC046BD4680BDC04642
:1059500000400440C55900003002001080B500AF7F
:10596000FFF7D6FFC046BD4680BDFFFF80B500AF44
:10597000A023DB05022203211800FFF783FF031E8B
:105980000FD00E4B3E229B5C40229343D9B20B4B6F
:105990003E2299540A4B1B6832211800FBF7CBFDBD
:1059A00008E0064B3E229B5C1A004023134001D0C6
:1059B000002300E001231800BD4680BD58010010FF
:1059C0003002001080B500AF054B3E229B5C4022A8
:1059D0001343D9B2024B3E229954C046BD4680BD06
:1059E0005801001080B584B000AF39601100FB1D74
:1059F000021C1A70BB1D0A1C1A70FA1D01235021CB
:105A0000002003F0B5FB0300FB60BB1D1B783A6868
:105A10005021002003F0E8FB0300FB60FB68180046
:105A2000BD4604B080BDFFFF80B588B000AF3960CF
:105A30001100FB1D021C1A70BB1D0A1C1A700023EA
:105A40007B61294BFA1D12781A700023BB61002379
:105A5000FB611CE0BB1D1B78002B1CD0FB690133D4
:105A60003A681178204AD1543B6801333B60BB1D32
:105A70001A78BB1D013A1A70FB1D1A78FB1D013202
:105A80001A70BB690133BB61FB690133FB61FB69C0
:105A9000072BDFDD00E0C046BB69002B1DDDBB69C5
:105AA000DBB20133DBB2104A5021002003F060FB6F
:105AB0000300FB60BB695A1CFB689A4203D17A69F8
:105AC000BB69D3187B61094B3B6102E03B69013B39
:105AD0003B613B69002BF9D1B3E7C0467B691800F5
